{
  "contractName": "CandidateResults",
  "abi": [
    {
      "inputs": [],
      "payable": false,
      "stateMutability": "nonpayable",
      "type": "constructor"
    },
    {
      "anonymous": false,
      "inputs": [
        {
          "indexed": true,
          "name": "_senderAddress",
          "type": "address"
        },
        {
          "indexed": false,
          "name": "_eventId",
          "type": "uint256"
        }
      ],
      "name": "EventAdded",
      "type": "event"
    },
    {
      "anonymous": false,
      "inputs": [
        {
          "indexed": true,
          "name": "_senderAddress",
          "type": "address"
        },
        {
          "indexed": false,
          "name": "_eventId",
          "type": "uint256"
        }
      ],
      "name": "EventInsAdded",
      "type": "event"
    },
    {
      "constant": false,
      "inputs": [
        {
          "name": "_UUID",
          "type": "bytes32"
        }
      ],
      "name": "addEvent",
      "outputs": [
        {
          "name": "eventId",
          "type": "uint256"
        }
      ],
      "payable": false,
      "stateMutability": "nonpayable",
      "type": "function"
    },
    {
      "constant": false,
      "inputs": [
        {
          "name": "InsUUID",
          "type": "bytes32"
        },
        {
          "name": "CandUUID",
          "type": "bytes32"
        }
      ],
      "name": "addInsCandEvent",
      "outputs": [
        {
          "name": "eventInsId",
          "type": "uint256"
        }
      ],
      "payable": false,
      "stateMutability": "nonpayable",
      "type": "function"
    },
    {
      "constant": false,
      "inputs": [
        {
          "name": "UUID",
          "type": "bytes32"
        }
      ],
      "name": "getTransDetailsByUUID",
      "outputs": [
        {
          "name": "",
          "type": "address"
        },
        {
          "name": "",
          "type": "address"
        },
        {
          "name": "",
          "type": "bool"
        },
        {
          "name": "",
          "type": "bool"
        }
      ],
      "payable": false,
      "stateMutability": "nonpayable",
      "type": "function"
    },
    {
      "constant": true,
      "inputs": [],
      "name": "listEvents",
      "outputs": [
        {
          "name": "eventIds",
          "type": "uint256[]"
        },
        {
          "name": "eventUUIDs",
          "type": "bytes32[]"
        }
      ],
      "payable": false,
      "stateMutability": "view",
      "type": "function"
    },
    {
      "constant": true,
      "inputs": [
        {
          "name": "ins",
          "type": "uint256"
        },
        {
          "name": "_UUID",
          "type": "bytes32"
        }
      ],
      "name": "listInsCandEvents",
      "outputs": [
        {
          "name": "InsUUIDs",
          "type": "bytes32[]"
        },
        {
          "name": "CandUUIDs",
          "type": "bytes32[]"
        }
      ],
      "payable": false,
      "stateMutability": "view",
      "type": "function"
    },
    {
      "constant": false,
      "inputs": [
        {
          "name": "UUID",
          "type": "bytes32"
        },
        {
          "name": "candAddress",
          "type": "address"
        },
        {
          "name": "schoolAddress",
          "type": "address"
        },
        {
          "name": "result",
          "type": "bytes"
        },
        {
          "name": "initialized",
          "type": "bool"
        },
        {
          "name": "schoolApproval",
          "type": "bool"
        },
        {
          "name": "providerApproval",
          "type": "bool"
        }
      ],
      "name": "createResult",
      "outputs": [
        {
          "name": "",
          "type": "bool"
        }
      ],
      "payable": false,
      "stateMutability": "nonpayable",
      "type": "function"
    },
    {
      "constant": false,
      "inputs": [
        {
          "name": "UUID",
          "type": "bytes32"
        },
        {
          "name": "to",
          "type": "address"
        }
      ],
      "name": "transferResultOwnership",
      "outputs": [
        {
          "name": "",
          "type": "bool"
        }
      ],
      "payable": false,
      "stateMutability": "nonpayable",
      "type": "function"
    },
    {
      "constant": true,
      "inputs": [
        {
          "name": "UUID",
          "type": "bytes32"
        }
      ],
      "name": "getResultByUUID",
      "outputs": [
        {
          "name": "res",
          "type": "bytes"
        }
      ],
      "payable": false,
      "stateMutability": "view",
      "type": "function"
    },
    {
      "constant": true,
      "inputs": [
        {
          "name": "UUID",
          "type": "bytes32"
        },
        {
          "name": "ownerAddress",
          "type": "address"
        }
      ],
      "name": "checkOwnershipOfResult",
      "outputs": [
        {
          "name": "",
          "type": "bool"
        }
      ],
      "payable": false,
      "stateMutability": "view",
      "type": "function"
    },
    {
      "constant": false,
      "inputs": [
        {
          "name": "memberAddress",
          "type": "address"
        },
        {
          "name": "role",
          "type": "bytes32"
        }
      ],
      "name": "addMember",
      "outputs": [
        {
          "name": "",
          "type": "bool"
        }
      ],
      "payable": false,
      "stateMutability": "nonpayable",
      "type": "function"
    },
    {
      "constant": false,
      "inputs": [
        {
          "name": "membertoken",
          "type": "string"
        },
        {
          "name": "UUIDs",
          "type": "bytes32"
        }
      ],
      "name": "addToken",
      "outputs": [
        {
          "name": "",
          "type": "bool"
        }
      ],
      "payable": false,
      "stateMutability": "nonpayable",
      "type": "function"
    },
    {
      "constant": false,
      "inputs": [
        {
          "name": "memberToken",
          "type": "string"
        },
        {
          "name": "UUIDs",
          "type": "bytes32"
        }
      ],
      "name": "verifyToken",
      "outputs": [
        {
          "name": "",
          "type": "bool"
        }
      ],
      "payable": false,
      "stateMutability": "nonpayable",
      "type": "function"
    },
    {
      "constant": false,
      "inputs": [
        {
          "name": "memberAddress",
          "type": "address"
        }
      ],
      "name": "getMember",
      "outputs": [
        {
          "name": "",
          "type": "bytes32"
        }
      ],
      "payable": false,
      "stateMutability": "nonpayable",
      "type": "function"
    },
    {
      "constant": false,
      "inputs": [
        {
          "name": "msgHash",
          "type": "bytes32"
        },
        {
          "name": "v",
          "type": "uint8"
        },
        {
          "name": "r",
          "type": "bytes32"
        },
        {
          "name": "s",
          "type": "bytes32"
        }
      ],
      "name": "recoverAddress",
      "outputs": [
        {
          "name": "",
          "type": "address"
        }
      ],
      "payable": false,
      "stateMutability": "nonpayable",
      "type": "function"
    }
  ],
  "bytecode": "0x608060405234801561001057600080fd5b5033600960006101000a81548173ffffffffffffffffffffffffffffffffffffffff021916908373ffffffffffffffffffffffffffffffffffffffff160217905550611920806100616000396000f3006080604052600436106100d0576000357c0100000000000000000000000000000000000000000000000000000000900463ffffffff168063074a68d7146100d557806325c5ccf61461011a5780632998bb171461020d5780632ada25961461029c5780634714fe7a146102fb57806349df72081461034e5780634fa08d6a146103b7578063529c194e1461044657806355d27a5c146104f05780635b0af3a7146105a45780638428cf831461060d5780638cdb25cc146106a7578063d57ee7c11461077f578063f400313f146107e8575b600080fd5b3480156100e157600080fd5b5061010460048036038101908080356000191690602001909291905050506108a2565b6040518082815260200191505060405180910390f35b34801561012657600080fd5b506101f36004803603810190808035600019169060200190929190803573ffffffffffffffffffffffffffffffffffffffff169060200190929190803573ffffffffffffffffffffffffffffffffffffffff169060200190929190803590602001908201803590602001908080601f0160208091040260200160405190810160405280939291908181526020018383808284378201915050505050509192919290803515159060200190929190803515159060200190929190803515159060200190929190505050610944565b604051808215151515815260200191505060405180910390f35b34801561021957600080fd5b50610282600480360381019080803590602001908201803590602001908080601f01602080910402602001604051908101604052809392919081815260200183838082843782019150505050505091929192908035600019169060200190929190505050610b92565b604051808215151515815260200191505060405180910390f35b3480156102a857600080fd5b506102dd600480360381019080803573ffffffffffffffffffffffffffffffffffffffff169060200190929190505050610c8e565b60405180826000191660001916815260200191505060405180910390f35b34801561030757600080fd5b5061033860048036038101908080356000191690602001909291908035600019169060200190929190505050610cda565b6040518082815260200191505060405180910390f35b34801561035a57600080fd5b5061039d600480360381019080803573ffffffffffffffffffffffffffffffffffffffff1690602001909291908035600019169060200190929190505050610d96565b604051808215151515815260200191505060405180910390f35b3480156103c357600080fd5b5061042c600480360381019080803590602001908201803590602001908080601f01602080910402602001604051908101604052809392919081815260200183838082843782019150505050505091929192908035600019169060200190929190505050610ded565b604051808215151515815260200191505060405180910390f35b34801561045257600080fd5b506104756004803603810190808035600019169060200190929190505050610e2c565b6040518080602001828103825283818151815260200191508051906020019080838360005b838110156104b557808201518184015260208101905061049a565b50505050905090810190601f1680156104e25780820380516001836020036101000a031916815260200191505b509250505060405180910390f35b3480156104fc57600080fd5b50610505610eeb565b604051808060200180602001838103835285818151815260200191508051906020019060200280838360005b8381101561054c578082015181840152602081019050610531565b50505050905001838103825284818151815260200191508051906020019060200280838360005b8381101561058e578082015181840152602081019050610573565b5050505090500194505050505060405180910390f35b3480156105b057600080fd5b506105f36004803603810190808035600019169060200190929190803573ffffffffffffffffffffffffffffffffffffffff169060200190929190505050611004565b604051808215151515815260200191505060405180910390f35b34801561061957600080fd5b506106656004803603810190808035600019169060200190929190803560ff16906020019092919080356000191690602001909291908035600019169060200190929190505050611244565b604051808273ffffffffffffffffffffffffffffffffffffffff1673ffffffffffffffffffffffffffffffffffffffff16815260200191505060405180910390f35b3480156106b357600080fd5b506106e0600480360381019080803590602001909291908035600019169060200190929190505050611389565b604051808060200180602001838103835285818151815260200191508051906020019060200280838360005b8381101561072757808201518184015260208101905061070c565b50505050905001838103825284818151815260200191508051906020019060200280838360005b8381101561076957808201518184015260208101905061074e565b5050505090500194505050505060405180910390f35b34801561078b57600080fd5b506107ce6004803603810190808035600019169060200190929190803573ffffffffffffffffffffffffffffffffffffffff16906020019092919050505061163c565b604051808215151515815260200191505060405180910390f35b3480156107f457600080fd5b5061081760048036038101908080356000191690602001909291905050506116b1565b604051808573ffffffffffffffffffffffffffffffffffffffff1673ffffffffffffffffffffffffffffffffffffffff1681526020018473ffffffffffffffffffffffffffffffffffffffff1673ffffffffffffffffffffffffffffffffffffffff168152602001831515151581526020018215151515815260200194505050505060405180910390f35b600060016000815480929190600101919050559050602060405190810160405280836000191681525060046000838152602001908152602001600020600082015181600001906000191690559050503373ffffffffffffffffffffffffffffffffffffffff167f4c3c1a32835d01634c7000db33267b0211ea79e940a2d8c25bd64d5454f3e087826040518082815260200191505060405180910390a2919050565b6000806000896000191660001916815260200190815260200160002060030160009054906101000a900460ff161561097f5760009050610b87565b610988886108a2565b5060c0604051908101604052808873ffffffffffffffffffffffffffffffffffffffff1681526020018773ffffffffffffffffffffffffffffffffffffffff168152602001868152602001851515815260200184151581526020018315158152506000808a6000191660001916815260200190815260200160002060008201518160000160006101000a81548173ffffffffffffffffffffffffffffffffffffffff021916908373ffffffffffffffffffffffffffffffffffffffff16021790555060208201518160010160006101000a81548173ffffffffffffffffffffffffffffffffffffffff021916908373ffffffffffffffffffffffffffffffffffffffff1602179055506040820151816002019080519060200190610aad929190611798565b5060608201518160030160006101000a81548160ff02191690831515021790555060808201518160030160016101000a81548160ff02191690831515021790555060a08201518160030160026101000a81548160ff0219169083151502179055509050506001600860003373ffffffffffffffffffffffffffffffffffffffff1673ffffffffffffffffffffffffffffffffffffffff16815260200190815260200160002060008a6000191660001916815260200190815260200160002060006101000a81548160ff021916908315150217905550600190505b979650505050505050565b6000826040518082805190602001908083835b602083101515610bca5780518252602082019150602081019050602083039250610ba5565b6001836020036101000a0380198251168184511680821785525050505050509050019150506040518091039020600019166007600084600019166000191681526020019081526020016000206000016040518082805460018160011615610100020316600290048015610c745780601f10610c52576101008083540402835291820191610c74565b820191906000526020600020905b815481529060010190602001808311610c60575b505091505060405180910390206000191614905092915050565b6000600660008373ffffffffffffffffffffffffffffffffffffffff1673ffffffffffffffffffffffffffffffffffffffff168152602001908152602001600020600001549050919050565b60006002600081548092919060010191905055905060408051908101604052808460001916815260200183600019168152506005600083815260200190815260200160002060008201518160000190600019169055602082015181600101906000191690559050503373ffffffffffffffffffffffffffffffffffffffff167f55297d1226bad48ac4aa6e958bce9fb06e5fe9da0eabe9a7a2a8111452bfcebc826040518082815260200191505060405180910390a292915050565b600081600660008573ffffffffffffffffffffffffffffffffffffffff1673ffffffffffffffffffffffffffffffffffffffff16815260200190815260200160002060000181600019169055506001905092915050565b6000826007600084600019166000191681526020019081526020016000206000019080519060200190610e21929190611818565b506001905092915050565b606060008083600019166000191681526020019081526020016000206002018054600181600116156101000203166002900480601f016020809104026020016040519081016040528092919081815260200182805460018160011615610100020316600290048015610edf5780601f10610eb457610100808354040283529160200191610edf565b820191906000526020600020905b815481529060010190602001808311610ec257829003601f168201915b50505050509050919050565b6060806000806000610efb611898565b600154935083604051908082528060200260200182016040528015610f2f5781602001602082028038833980820191505090505b50955083604051908082528060200260200182016040528015610f615781602001602082028038833980820191505090505b509450600092505b83831015610ffc57829150600460008381526020019081526020016000206020604051908101604052908160008201546000191660001916815250509050818684815181101515610fb657fe5b906020019060200201818152505080600001518584815181101515610fd757fe5b9060200190602002019060001916908160001916815250508280600101935050610f69565b505050509091565b6000806000846000191660001916815260200190815260200160002060030160009054906101000a900460ff161515611040576000905061123e565b600860003373ffffffffffffffffffffffffffffffffffffffff1673ffffffffffffffffffffffffffffffffffffffff1681526020019081526020016000206000846000191660001916815260200190815260200160002060009054906101000a900460ff1615156110b5576000905061123e565b600080846000191660001916815260200190815260200160002060030160029054906101000a900460ff1615611120576001600080856000191660001916815260200190815260200160002060030160016101000a81548160ff021916908315150217905550611157565b6001600080856000191660001916815260200190815260200160002060030160026101000a81548160ff0219169083151502179055505b6000600860003373ffffffffffffffffffffffffffffffffffffffff1673ffffffffffffffffffffffffffffffffffffffff1681526020019081526020016000206000856000191660001916815260200190815260200160002060006101000a81548160ff0219169083151502179055506001600860008473ffffffffffffffffffffffffffffffffffffffff1673ffffffffffffffffffffffffffffffffffffffff1681526020019081526020016000206000856000191660001916815260200190815260200160002060006101000a81548160ff021916908315150217905550600190505b92915050565b600060606000806040805190810160405280601c81526020017f19457468657265756d205369676e6564204d6573736167653a0a333200000000815250925082886040518083805190602001908083835b6020831015156112ba5780518252602082019150602081019050602083039250611295565b6001836020036101000a03801982511681845116808217855250505050505090500182600019166000191681526020019250505060405180910390209150600182888888604051600081526020016040526040518085600019166000191681526020018460ff1660ff1681526020018360001916600019168152602001826000191660001916815260200194505050505060206040516020810390808403906000865af115801561136f573d6000803e3d6000fd5b505050602060405103519050809350505050949350505050565b6060806000806113976118af565b60008060006113a46118af565b60025496506000600381905550600095505b8686101561146c57600560008781526020019081526020016000206040805190810160405290816000820154600019166000191681526020016001820154600019166000191681525050945060018b14156114375789600019168560000151600019161415611432576003600081548092919060010191905055505b61145f565b8960001916856020015160001916141561145e576003600081548092919060010191905055505b5b85806001019650506113b6565b60035460405190808252806020026020018201604052801561149d5781602001602082028038833980820191505090505b5097506003546040519080825280602002602001820160405280156114d15781602001602082028038833980820191505090505b50985060009350600092505b8683101561162e57829150600560008381526020019081526020016000206040805190810160405290816000820154600019166000191681526020016001820154600019166000191681525050905060018b14156115ad57896000191681600001516000191614156115a8578060000151898581518110151561155c57fe5b9060200190602002019060001916908160001916815250508060200151888581518110151561158757fe5b90602001906020020190600019169081600019168152505083806001019450505b611621565b8960001916816020015160001916141561162057806000015189858151811015156115d457fe5b906020019060200201906000191690816000191681525050806020015188858151811015156115ff57fe5b90602001906020020190600019169081600019168152505083806001019450505b5b82806001019350506114dd565b505050505050509250929050565b600080600860008473ffffffffffffffffffffffffffffffffffffffff1673ffffffffffffffffffffffffffffffffffffffff1681526020019081526020016000206000856000191660001916815260200190815260200160002060009054906101000a900460ff1690508091505092915050565b600080600080600080866000191660001916815260200190815260200160002060000160009054906101000a900473ffffffffffffffffffffffffffffffffffffffff16600080876000191660001916815260200190815260200160002060010160009054906101000a900473ffffffffffffffffffffffffffffffffffffffff16600080886000191660001916815260200190815260200160002060030160019054906101000a900460ff16600080896000191660001916815260200190815260200160002060030160029054906101000a900460ff1693509350935093509193509193565b828054600181600116156101000203166002900490600052602060002090601f016020900481019282601f106117d957805160ff1916838001178555611807565b82800160010185558215611807579182015b828111156118065782518255916020019190600101906117eb565b5b50905061181491906118cf565b5090565b828054600181600116156101000203166002900490600052602060002090601f016020900481019282601f1061185957805160ff1916838001178555611887565b82800160010185558215611887579182015b8281111561188657825182559160200191906001019061186b565b5b50905061189491906118cf565b5090565b602060405190810160405280600080191681525090565b604080519081016040528060008019168152602001600080191681525090565b6118f191905b808211156118ed5760008160009055506001016118d5565b5090565b905600a165627a7a72305820287d35e3e40a5457ec4ff86d1aaa8535a8c44e63e76efc0b5e4c531b4bd6407e0029",
  "source": "pragma solidity ^0.4.4;\r\n\r\n\r\ncontract CandidateResults {\r\n\r\n    struct CandidateResult {\r\n        address candidateAddress;\r\n        address schoolAddress;\r\n        bytes result;\r\n        bool initialized;\r\n        bool approvedBySchool;\r\n        bool approvedByProvider;\r\n    }\r\n    mapping(bytes32 => CandidateResult) resultsStore;\r\n      \r\n\r\n   \r\nstruct Event {\r\n        bytes32 UUID;\r\n    }\r\nstruct EventInsCand {\r\n        bytes32 InsUUID;\r\n        bytes32 CandUUID;\r\n    }\r\n\r\n    uint totalEvents;\r\n\r\n    uint totalInsEvents;\r\n\r\n    uint noOfItems;\r\n\r\n    mapping(uint => Event) EventList;\r\n    mapping(uint => EventInsCand) EventInsCandList;\r\n\r\n    event EventAdded(address indexed _senderAddress, uint _eventId);\r\n    event EventInsAdded(address indexed _senderAddress, uint _eventId);\r\n\r\n    function addEvent(bytes32 _UUID) returns(uint eventId) {\r\n        eventId = totalEvents++;\r\n        EventList[eventId] = Event(_UUID);\r\n        EventAdded(msg.sender, eventId);\r\n    }\r\n    function addInsCandEvent(bytes32 InsUUID,bytes32 CandUUID) public returns(uint eventInsId){\r\n        eventInsId = totalInsEvents++;\r\n        EventInsCandList[eventInsId] = EventInsCand(InsUUID,CandUUID);\r\n        EventInsAdded(msg.sender, eventInsId);\r\n    }\r\n    function getTransDetailsByUUID(bytes32 UUID) public returns (address,address,bool,bool) {\r\n        \r\n   return (resultsStore[UUID].candidateAddress, resultsStore[UUID].schoolAddress, resultsStore[UUID].approvedBySchool,resultsStore[UUID].approvedByProvider);\r\n    }\r\n    \r\n    function listEvents() constant returns(uint[] eventIds, bytes32[] eventUUIDs) {\r\n        uint maxIters = totalEvents;\r\n        eventIds = new uint[](maxIters);\r\n        eventUUIDs = new bytes32[](maxIters);\r\n\r\n        for(uint i=0;i<maxIters;i++) {\r\n            uint eventId =  i;\r\n            Event memory e = EventList[eventId];\r\n            eventIds[i] = eventId;\r\n            eventUUIDs[i] = e.UUID;\r\n        }\r\n    }\r\n\r\n    function listInsCandEvents(uint ins, bytes32 _UUID) constant returns(bytes32[] InsUUIDs,bytes32[] CandUUIDs) {\r\n        uint maxIters = totalInsEvents;\r\n         noOfItems = 0;\r\n      \r\n        for(uint j=0;j<maxIters;j++) {\r\n            \r\n            EventInsCand memory g = EventInsCandList[j];\r\n            if(ins == 1 )\r\n            {\r\n                   if (g.InsUUID == _UUID)\r\n                   {\r\n                     noOfItems++;\r\n                   }\r\n            }\r\n            else\r\n            {   \r\n                if (g.CandUUID == _UUID)\r\n                   {\r\n                       noOfItems++;\r\n                   }\r\n            }\r\n            \r\n        }\r\n        CandUUIDs = new bytes32[](noOfItems);\r\n        InsUUIDs = new bytes32[](noOfItems);\r\n        uint k = 0;\r\n\r\n        for(uint i=0;i<maxIters;i++) {\r\n            uint eventInsId =  i;\r\n            EventInsCand memory f = EventInsCandList[eventInsId];\r\n            if(ins == 1 )\r\n            {\r\n                   if (f.InsUUID == _UUID)\r\n                   { \r\n                     InsUUIDs[k] = f.InsUUID;\r\n                     CandUUIDs[k] = f.CandUUID;\r\n                      k++;\r\n                   }\r\n            }\r\n            else\r\n            {   \r\n                if (f.CandUUID == _UUID)\r\n                   {\r\n                        InsUUIDs[k] = f.InsUUID;\r\n                        CandUUIDs[k] = f.CandUUID;\r\n                        k++;\r\n                   }\r\n            }\r\n            \r\n        }\r\n    }\r\n \r\n    \r\n    \r\n    struct Identity {\r\n        bytes32 role;\r\n    }\r\n\r\n    mapping(address => Identity)  membersStore;\r\n    struct Token {\r\n        string universityToken;\r\n    }\r\n    \r\n     mapping(bytes32 => Token)  tokenStore;\r\n    mapping(address => mapping(bytes32 => bool))  ownershipStore;\r\n\r\n    address owner;\r\n\r\n    function CandidateResults() public {\r\n        owner = msg.sender;\r\n    }\r\n   \r\n  \r\n    function createResult(bytes32 UUID, address candAddress, address schoolAddress, bytes result, bool initialized, bool schoolApproval, bool providerApproval) public returns (bool) {\r\n        if (resultsStore[UUID].initialized) {\r\n            return false;\r\n        }\r\n        \r\n        addEvent(UUID);\r\n        resultsStore[UUID] = CandidateResult(candAddress, schoolAddress, result, initialized, schoolApproval, providerApproval);\r\n        \r\n         ownershipStore[msg.sender][UUID] = true;\r\n\r\n       return true;\r\n    }\r\n    \r\n    function transferResultOwnership(bytes32 UUID, address to) public returns (bool) {\r\n        if(!resultsStore[UUID].initialized) {\r\n            return false;\r\n        }\r\n\r\n        if(!ownershipStore[msg.sender][UUID]) {\r\n            return false;\r\n        }\r\n\r\n        // To do: check who is the current owner - if Provider, then transfer to school. If school , then transfer to Candidate. You can take these addresses from the resultsStore struct\r\n        //if(resultsStore[UUID].schoolAddress == msg.sender){\r\n        if(resultsStore[UUID].approvedByProvider){\r\n            resultsStore[UUID].approvedBySchool = true;\r\n        } else {\r\n            resultsStore[UUID].approvedByProvider = true;\r\n        }\r\n        ownershipStore[msg.sender][UUID] = false;\r\n        ownershipStore[to][UUID] = true;\r\n        return true;\r\n    }\r\n\r\n    function getResultByUUID(bytes32 UUID) view public returns (bytes res) {\r\n        return(resultsStore[UUID].result);\r\n    }\r\n   \r\n\r\n    function checkOwnershipOfResult(bytes32 UUID, address ownerAddress) public constant returns (bool) {\r\n        var res = ownershipStore[ownerAddress][UUID];\r\n\r\n        return (res);\r\n    }\r\n\r\n    function addMember(address memberAddress, bytes32 role) public returns (bool) {\r\n        membersStore[memberAddress].role = role;\r\n\r\n        return true;\r\n    }\r\n    function addToken(string membertoken, bytes32 UUIDs) public returns (bool) {\r\n        tokenStore[UUIDs].universityToken = membertoken;\r\n\r\n        return true;\r\n    }\r\n    function verifyToken(string memberToken, bytes32 UUIDs) public returns (bool) {\r\n        return sha3(tokenStore[UUIDs].universityToken) == sha3(memberToken);\r\n    }\r\n\r\n    function getMember(address memberAddress) public returns (bytes32) {\r\n        return membersStore[memberAddress].role;\r\n    }\r\n\r\n    function recoverAddress(bytes32 msgHash, uint8 v, bytes32 r, bytes32 s) returns (address) {\r\n         bytes memory prefix = \"\\x19Ethereum Signed Message:\\n32\";\r\n        bytes32 prefixedHash = sha3(prefix, msgHash);\r\n        address addr = ecrecover(prefixedHash, v, r, s);\r\n\r\n        return addr;\r\n    }\r\n\r\n}",
  "sourcePath": "C:\\Inthra\\blockchain\\hackathon\\contracts\\CandidateResults.sol",
  "compiler": {
    "name": "solc",
    "version": "0.4.24+commit.e67f0147.Emscripten.clang"
  },
  "schemaVersion": "2.0.1",
  "updatedAt": "2018-06-27T06:23:22.328Z"
}